:100000000C9446000C945D000C945D000C945D0013
:100010000C945D000C945D000C945D000C945D00EC
:100020000C945D000C945D000C945D000C945D00DC
:100030000C945D000C945D000C945D000C945D00CC
:100040000C945D000C945D000C945D000C945D00BC
:100050000C945D000C945D000C945D000C945D00AC
:100060000C945D000C945D000C945D000C945D009C
:100070000C945D000C945D000C945D000C945D008C
:100080000C945D000C945D000C945D0011241FBE67
:10009000CFEFD0E4DEBFCDBF11E0A0E0B1E0ECE2F5
:1000A000F1E000E00BBF02C007900D92AE30B10747
:1000B000D9F70E9470000C9494000C940000CF9328
:1000C000C82F8A3019F48DE00E945F008091C00033
:1000D00085FFFCCFC093C60080E090E0CF910895EB
:1000E00011B88FEF82B987B918B880B1809561F0E7
:1000F000833060F0853060F0873060F08A3060F0E7
:100100008D3060F49EE30BC090E409C090E207C01C
:1001100090E305C098E303C09CE301C09FE38530F2
:0C01200008F4905C98B9E1CFF894FFCF90
:0E012C0000000002000000005F000000000064
:00000001FF
