:100000000C9446000C9465000C9465000C946500FB
:100010000C9465000C9465000C9465000C946500CC
:100020000C9465000C9465000C9465000C946500BC
:100030000C9465000C9465000C9465000C946500AC
:100040000C9465000C9465000C9465000C9465009C
:100050000C9465000C9465000C9465000C9465008C
:100060000C9465000C9465000C9465000C9465007C
:100070000C9465000C9465000C9465000C9465006C
:100080000C9465000C9465000C94650011241FBE4F
:10009000CFEFD0E4DEBFCDBF11E0A0E0B1E0ECEAED
:1000A000F2E000E00BBF02C007900D92AE30B10746
:1000B000D9F721E0AEE0B1E001C01D92A031B20756
:1000C000E1F70E9447010C9454010C940000CF9377
:1000D000C82F8A3019F48DE00E9467008091C0001B
:1000E00085FFFCCFC093C60080E090E0CF910895DB
:1000F00080910E0190910F018230910509F441C069
:1001000028F4009769F00197A1F094C0843091051C
:1001100009F46BC008F462C0059709F46DC08AC089
:1001200087E088B981E090E090930F0180930E0101
:1001300085C0009907C083E090E090930F01809301
:100140000E017CC0019907C084E090E090930F01FC
:1001500080930E0173C080B190E08095909583707C
:100160009927039739F485E090E090930F018093ED
:100170000E0164C081E090E090930F0180930E0126
:100180005DC080B190E0809590958370992701972C
:1001900041F080B190E08095909583709927029707
:1001A00039F482E090E090930F0180930E0146C0F5
:1001B00080B190E08095909583709927039739F4EA
:1001C00085E090E090930F0180930E0137C081E0AD
:1001D00090E090930F0180930E0130C082E090E098
:1001E00090930F0180930E0129C082E090E09093DC
:1001F0000F0180930E0122C080B190E08095909510
:1002000083709927019741F080B190E08095909597
:1002100083709927029739F485E090E090930F015D
:1002200080930E010BC081E090E090930F018093CA
:100230000E0104C010920F0110920E0180910E0168
:1002400090910F018330910569F018F4892B39F0F2
:1002500008958430910581F00597B9F0089587E0FD
:1002600088B9089588B1893018F089E088B908956F
:1002700088B18F5F88B9089588B1811102C018B81C
:10028000089588B1815088B9089518B8089511B8B3
:100290008FEF82B987B987E088B910920F01109269
:0C02A0000E010E947800FDCFF894FFCF03
:0E02AC000000000200000000670000000000DB
:00000001FF
