:100000000C9446000C9465000C9465000C946500FB
:100010000C9465000C9465000C9465000C946500CC
:100020000C9465000C9465000C9465000C946500BC
:100030000C9465000C9465000C9465000C946500AC
:100040000C9465000C9465000C9465000C9465009C
:100050000C9465000C9465000C9465000C9465008C
:100060000C9465000C9465000C9465000C9465007C
:100070000C9465000C9465000C9465000C9465006C
:100080000C9465000C9465000C94650011241FBE4F
:10009000CFEFD0E4DEBFCDBF11E0A0E0B1E0E6EAF3
:1000A000F2E000E00BBF02C007900D92AE30B10746
:1000B000D9F721E0AEE0B1E001C01D92A031B20756
:1000C000E1F70E9445010C9451010C940000CF937C
:1000D000C82F8A3019F48DE00E9467008091C0001B
:1000E00085FFFCCFC093C60080E090E0CF910895DB
:1000F00080910E0190910F018230910509F43FC06B
:1001000028F4009769F0019791F092C0843091052E
:1001100009F469C008F460C0059709F46BC088C091
:1001200081E090E090930F0180930E0185C00099CB
:1001300007C083E090E090930F0180930E017CC094
:10014000019907C084E090E090930F0180930E0125
:1001500073C080B190E08095909583709927039744
:1001600039F485E090E090930F0180930E0164C014
:1001700081E090E090930F0180930E015DC080B10B
:1001800090E08095909583709927019741F080B118
:1001900090E08095909583709927029739F482E0DA
:1001A00090E090930F0180930E0146C080B190E0E3
:1001B0008095909583709927039739F485E090E0B6
:1001C00090930F0180930E0137C081E090E09093EF
:1001D0000F0180930E0130C082E090E090930F01F8
:1001E00080930E0129C082E090E090930F018093EC
:1001F0000E0122C080B190E0809590958370992780
:10020000019741F080B190E0809590958370992797
:10021000029739F485E090E090930F0180930E01EE
:100220000BC081E090E090930F0180930E0104C019
:1002300010920F0110920E0180910E0190910F010A
:100240008330910561F018F4892B39F008958430DA
:10025000910579F00597B9F0089518B8089588B117
:10026000893020F488B18F5F88B9089588B188B942
:10027000089588B1882321F088B1815088B9089504
:1002800088B188B9089518B8089511B88FEF82B968
:1002900087B918B810920F0110920E010E947800D1
:0602A000FDCFF894FFCF32
:0E02A6000000000200000000670000000000E1
:00000001FF
