:100000000C9446000C9465000C9465000C946500FB
:100010000C9465000C9465000C9465000C946500CC
:100020000C9465000C9465000C9465000C946500BC
:100030000C9465000C9465000C9465000C946500AC
:100040000C9465000C9465000C9465000C9465009C
:100050000C9465000C9465000C9465000C9465008C
:100060000C9465000C9465000C9465000C9465007C
:100070000C9465000C9465000C9465000C9465006C
:100080000C9465000C9465000C94650011241FBE4F
:10009000CFEFD0E4DEBFCDBF11E0A0E0B1E0E0ECF7
:1000A000F1E000E00BBF02C007900D92AE30B10747
:1000B000D9F721E0AEE0B1E001C01D92A031B20756
:1000C000E1F70E94D2000C94DE000C940000CF9364
:1000D000C82F8A3019F48DE00E9467008091C0001B
:1000E00085FFFCCFC093C60080E090E0CF910895DB
:1000F00080910E0190910F018130910571F030F0E7
:100100008230910551F10397C1F02EC081E090E05B
:1001100090930F0180930E012BC0009907C082E0DD
:1001200090E090930F0180930E0122C081E090E057
:1001300090930F0180930E011BC0009907C083E0CC
:1001400090E090930F0180930E0112C081E090E047
:1001500090930F0180930E010BC083E090E0909389
:100160000F0180930E0104C010920F0110920E0136
:1001700080910E0190910F01009719F0029719F0EC
:10018000089515B8089585B1811103C081E085B93E
:10019000089585B18F3311F415B8089585B1880F8E
:1001A00085B9089511B88FEF82B984B915B8109246
:1001B0000F0110920E010E947800FDCFF894FFCF3E
:0E01C0000000000200000000670000000000C8
:00000001FF
